{
  "contractName": "Bela",
  "abi": [
    {
      "constant": true,
      "inputs": [],
      "name": "name",
      "outputs": [
        {
          "name": "",
          "type": "string"
        }
      ],
      "payable": false,
      "stateMutability": "view",
      "type": "function"
    },
    {
      "constant": true,
      "inputs": [],
      "name": "totalBelaStaked",
      "outputs": [
        {
          "name": "",
          "type": "uint256"
        }
      ],
      "payable": false,
      "stateMutability": "view",
      "type": "function"
    },
    {
      "constant": false,
      "inputs": [
        {
          "name": "_spender",
          "type": "address"
        },
        {
          "name": "_value",
          "type": "uint256"
        }
      ],
      "name": "approve",
      "outputs": [
        {
          "name": "",
          "type": "bool"
        }
      ],
      "payable": false,
      "stateMutability": "nonpayable",
      "type": "function"
    },
    {
      "constant": true,
      "inputs": [],
      "name": "totalSupply",
      "outputs": [
        {
          "name": "",
          "type": "uint256"
        }
      ],
      "payable": false,
      "stateMutability": "view",
      "type": "function"
    },
    {
      "constant": false,
      "inputs": [
        {
          "name": "_from",
          "type": "address"
        },
        {
          "name": "_to",
          "type": "address"
        },
        {
          "name": "_value",
          "type": "uint256"
        }
      ],
      "name": "transferFrom",
      "outputs": [
        {
          "name": "",
          "type": "bool"
        }
      ],
      "payable": false,
      "stateMutability": "nonpayable",
      "type": "function"
    },
    {
      "constant": true,
      "inputs": [],
      "name": "decimals",
      "outputs": [
        {
          "name": "",
          "type": "uint8"
        }
      ],
      "payable": false,
      "stateMutability": "view",
      "type": "function"
    },
    {
      "constant": true,
      "inputs": [
        {
          "name": "",
          "type": "address"
        }
      ],
      "name": "stakeBalances",
      "outputs": [
        {
          "name": "initialStakeBalance",
          "type": "uint256"
        },
        {
          "name": "initialStakeTime",
          "type": "uint256"
        },
        {
          "name": "initialStakePercentage",
          "type": "uint256"
        },
        {
          "name": "stakeSplitAddress",
          "type": "address"
        }
      ],
      "payable": false,
      "stateMutability": "view",
      "type": "function"
    },
    {
      "constant": false,
      "inputs": [
        {
          "name": "_spender",
          "type": "address"
        },
        {
          "name": "_subtractedValue",
          "type": "uint256"
        }
      ],
      "name": "decreaseApproval",
      "outputs": [
        {
          "name": "",
          "type": "bool"
        }
      ],
      "payable": false,
      "stateMutability": "nonpayable",
      "type": "function"
    },
    {
      "constant": true,
      "inputs": [
        {
          "name": "_owner",
          "type": "address"
        }
      ],
      "name": "balanceOf",
      "outputs": [
        {
          "name": "balance",
          "type": "uint256"
        }
      ],
      "payable": false,
      "stateMutability": "view",
      "type": "function"
    },
    {
      "constant": true,
      "inputs": [],
      "name": "owner",
      "outputs": [
        {
          "name": "",
          "type": "address"
        }
      ],
      "payable": false,
      "stateMutability": "view",
      "type": "function"
    },
    {
      "constant": true,
      "inputs": [],
      "name": "symbol",
      "outputs": [
        {
          "name": "",
          "type": "string"
        }
      ],
      "payable": false,
      "stateMutability": "view",
      "type": "function"
    },
    {
      "constant": false,
      "inputs": [],
      "name": "reclaimEther",
      "outputs": [],
      "payable": false,
      "stateMutability": "nonpayable",
      "type": "function"
    },
    {
      "constant": true,
      "inputs": [],
      "name": "ownerMintRate",
      "outputs": [
        {
          "name": "",
          "type": "uint256"
        }
      ],
      "payable": false,
      "stateMutability": "view",
      "type": "function"
    },
    {
      "constant": false,
      "inputs": [
        {
          "name": "_to",
          "type": "address"
        },
        {
          "name": "_value",
          "type": "uint256"
        }
      ],
      "name": "transfer",
      "outputs": [
        {
          "name": "",
          "type": "bool"
        }
      ],
      "payable": false,
      "stateMutability": "nonpayable",
      "type": "function"
    },
    {
      "constant": true,
      "inputs": [],
      "name": "ownerTimeLastMinted",
      "outputs": [
        {
          "name": "",
          "type": "uint256"
        }
      ],
      "payable": false,
      "stateMutability": "view",
      "type": "function"
    },
    {
      "constant": false,
      "inputs": [
        {
          "name": "_spender",
          "type": "address"
        },
        {
          "name": "_addedValue",
          "type": "uint256"
        }
      ],
      "name": "increaseApproval",
      "outputs": [
        {
          "name": "",
          "type": "bool"
        }
      ],
      "payable": false,
      "stateMutability": "nonpayable",
      "type": "function"
    },
    {
      "constant": true,
      "inputs": [
        {
          "name": "_owner",
          "type": "address"
        },
        {
          "name": "_spender",
          "type": "address"
        }
      ],
      "name": "allowance",
      "outputs": [
        {
          "name": "",
          "type": "uint256"
        }
      ],
      "payable": false,
      "stateMutability": "view",
      "type": "function"
    },
    {
      "constant": false,
      "inputs": [
        {
          "name": "newOwner",
          "type": "address"
        }
      ],
      "name": "transferOwnership",
      "outputs": [],
      "payable": false,
      "stateMutability": "nonpayable",
      "type": "function"
    },
    {
      "inputs": [],
      "payable": false,
      "stateMutability": "nonpayable",
      "type": "constructor"
    },
    {
      "payable": false,
      "stateMutability": "nonpayable",
      "type": "fallback"
    },
    {
      "anonymous": false,
      "inputs": [
        {
          "indexed": true,
          "name": "staker",
          "type": "address"
        },
        {
          "indexed": true,
          "name": "stakeSplitAddress",
          "type": "address"
        },
        {
          "indexed": false,
          "name": "value",
          "type": "uint256"
        }
      ],
      "name": "Stake",
      "type": "event"
    },
    {
      "anonymous": false,
      "inputs": [
        {
          "indexed": true,
          "name": "vester",
          "type": "address"
        },
        {
          "indexed": true,
          "name": "stakeSplitAddress",
          "type": "address"
        },
        {
          "indexed": false,
          "name": "stakedAmount",
          "type": "uint256"
        },
        {
          "indexed": false,
          "name": "stakingGains",
          "type": "uint256"
        }
      ],
      "name": "Vest",
      "type": "event"
    },
    {
      "anonymous": false,
      "inputs": [
        {
          "indexed": true,
          "name": "to",
          "type": "address"
        },
        {
          "indexed": false,
          "name": "amount",
          "type": "uint256"
        }
      ],
      "name": "Mint",
      "type": "event"
    },
    {
      "anonymous": false,
      "inputs": [
        {
          "indexed": true,
          "name": "previousOwner",
          "type": "address"
        },
        {
          "indexed": true,
          "name": "newOwner",
          "type": "address"
        }
      ],
      "name": "OwnershipTransferred",
      "type": "event"
    },
    {
      "anonymous": false,
      "inputs": [
        {
          "indexed": true,
          "name": "owner",
          "type": "address"
        },
        {
          "indexed": true,
          "name": "spender",
          "type": "address"
        },
        {
          "indexed": false,
          "name": "value",
          "type": "uint256"
        }
      ],
      "name": "Approval",
      "type": "event"
    },
    {
      "anonymous": false,
      "inputs": [
        {
          "indexed": true,
          "name": "from",
          "type": "address"
        },
        {
          "indexed": true,
          "name": "to",
          "type": "address"
        },
        {
          "indexed": false,
          "name": "value",
          "type": "uint256"
        }
      ],
      "name": "Transfer",
      "type": "event"
    },
    {
      "constant": false,
      "inputs": [],
      "name": "DEVONLYsendTokens",
      "outputs": [],
      "payable": false,
      "stateMutability": "nonpayable",
      "type": "function"
    },
    {
      "constant": false,
      "inputs": [],
      "name": "DEVONLYstakeTokens",
      "outputs": [],
      "payable": false,
      "stateMutability": "nonpayable",
      "type": "function"
    },
    {
      "constant": false,
      "inputs": [],
      "name": "DEVONLYincrementStakeTime1Day",
      "outputs": [],
      "payable": false,
      "stateMutability": "nonpayable",
      "type": "function"
    },
    {
      "constant": false,
      "inputs": [],
      "name": "DEVONLYincrementStakeTime10Days",
      "outputs": [],
      "payable": false,
      "stateMutability": "nonpayable",
      "type": "function"
    },
    {
      "constant": false,
      "inputs": [
        {
          "name": "_stakeAmount",
          "type": "uint256"
        }
      ],
      "name": "stakeBela",
      "outputs": [],
      "payable": false,
      "stateMutability": "nonpayable",
      "type": "function"
    },
    {
      "constant": false,
      "inputs": [
        {
          "name": "_stakeAmount",
          "type": "uint256"
        },
        {
          "name": "_stakeSplitAddress",
          "type": "address"
        }
      ],
      "name": "stakeBelaSplit",
      "outputs": [],
      "payable": false,
      "stateMutability": "nonpayable",
      "type": "function"
    },
    {
      "constant": false,
      "inputs": [],
      "name": "claimStake",
      "outputs": [
        {
          "name": "success",
          "type": "bool"
        }
      ],
      "payable": false,
      "stateMutability": "nonpayable",
      "type": "function"
    },
    {
      "constant": true,
      "inputs": [],
      "name": "getStakedBalance",
      "outputs": [
        {
          "name": "stakedBalance",
          "type": "uint256"
        }
      ],
      "payable": false,
      "stateMutability": "view",
      "type": "function"
    },
    {
      "constant": false,
      "inputs": [],
      "name": "ownerClaim",
      "outputs": [],
      "payable": false,
      "stateMutability": "nonpayable",
      "type": "function"
    }
  ],
  "bytecode": "0x606060405234156200001057600080fd5b60008033600360006101000a81548173ffffffffffffffffffffffffffffffffffffffff021916908373ffffffffffffffffffffffffffffffffffffffff1602179055506000341415156200006457600080fd5b33600360006101000a81548173ffffffffffffffffffffffffffffffffffffffff021916908373ffffffffffffffffffffffffffffffffffffffff1602179055506a21ea16741ed20ec90000009150620000d333836200015364010000000002620020d9176401000000009004565b9050801515620000e257600080fd5b426004819055506200011361119462015180601260ff16620002e364010000000002620026fb176401000000009004565b60058190555062000145624ac4a06301e13380601260ff16620002e364010000000002620026fb176401000000009004565b6006819055505050620003cb565b60006200017a8260005462000351640100000000026200209e179091906401000000009004565b600081905550620001e282600160008673ffffffffffffffffffffffffffffffffffffffff1673ffffffffffffffffffffffffffffffffffffffff1681526020019081526020016000205462000351640100000000026200209e179091906401000000009004565b600160008573ffffffffffffffffffffffffffffffffffffffff1673ffffffffffffffffffffffffffffffffffffffff168152602001908152602001600020819055508273ffffffffffffffffffffffffffffffffffffffff167f0f6798a560793a54c3bcfe86a93cde1e73087d944c0ea20544137d4121396885836040518082815260200191505060405180910390a28273ffffffffffffffffffffffffffffffffffffffff16600073ffffffffffffffffffffffffffffffffffffffff167fddf252ad1be2c89b69c2b068fc378daa952ba7f163c4a11628f55a4df523b3ef846040518082815260200191505060405180910390a36001905092915050565b6000806200030f60018401600a0a866200037064010000000002620026c0179091906401000000009004565b9450600a6005620003388688620003af64010000000002620026a5179091906401000000009004565b018115156200034357fe5b049050809150509392505050565b60008082840190508381101515156200036657fe5b8091505092915050565b6000806000841415620003875760009150620003a8565b82840290508284828115156200039957fe5b04141515620003a457fe5b8091505b5092915050565b6000808284811515620003be57fe5b0490508091505092915050565b61277480620003db6000396000f30060606040526004361061015f576000357c0100000000000000000000000000000000000000000000000000000000900463ffffffff16806306fdde031461016c578063071da02f146101fa578063095ea7b31461022357806318160ddd1461027d57806323b872dd146102a6578063277b9dfb1461031f5780632df38e8a14610334578063313ce567146103495780633b317dab146103785780634dbe5889146104065780634efd2ec61461041b5780636618846314610430578063676829411461048a57806370a082311461049f57806376965867146104ec5780638c2305fd146105155780638da5cb5b1461053857806395d89b411461058d57806398290c531461061b5780639f727c271461065d578063a0d8b4e914610672578063a9059cbb1461069b578063ac185644146106f5578063d73dd6231461071e578063dd62ed3e14610778578063eb321173146107e4578063f2fde38b14610811575b341561016a57600080fd5b005b341561017757600080fd5b61017f61084a565b6040518080602001828103825283818151815260200191508051906020019080838360005b838110156101bf5780820151818401526020810190506101a4565b50505050905090810190601f1680156101ec5780820380516001836020036101000a031916815260200191505b509250505060405180910390f35b341561020557600080fd5b61020d610883565b6040518082815260200191505060405180910390f35b341561022e57600080fd5b610263600480803573ffffffffffffffffffffffffffffffffffffffff16906020019091908035906020019091905050610889565b604051808215151515815260200191505060405180910390f35b341561028857600080fd5b61029061097b565b6040518082815260200191505060405180910390f35b34156102b157600080fd5b610305600480803573ffffffffffffffffffffffffffffffffffffffff1690602001909190803573ffffffffffffffffffffffffffffffffffffffff16906020019091908035906020019091905050610981565b604051808215151515815260200191505060405180910390f35b341561032a57600080fd5b610332610d40565b005b341561033f57600080fd5b610347610de9565b005b341561035457600080fd5b61035c610e3e565b604051808260ff1660ff16815260200191505060405180910390f35b341561038357600080fd5b6103af600480803573ffffffffffffffffffffffffffffffffffffffff16906020019091905050610e43565b604051808581526020018481526020018381526020018273ffffffffffffffffffffffffffffffffffffffff1673ffffffffffffffffffffffffffffffffffffffff16815260200194505050505060405180910390f35b341561041157600080fd5b610419610e93565b005b341561042657600080fd5b61042e610f59565b005b341561043b57600080fd5b610470600480803573ffffffffffffffffffffffffffffffffffffffff16906020019091908035906020019091905050610fae565b604051808215151515815260200191505060405180910390f35b341561049557600080fd5b61049d61123f565b005b34156104aa57600080fd5b6104d6600480803573ffffffffffffffffffffffffffffffffffffffff16906020019091905050611253565b6040518082815260200191505060405180910390f35b34156104f757600080fd5b6104ff61129c565b6040518082815260200191505060405180910390f35b341561052057600080fd5b61053660048080359060200190919050506112e6565b005b341561054357600080fd5b61054b6112fd565b604051808273ffffffffffffffffffffffffffffffffffffffff1673ffffffffffffffffffffffffffffffffffffffff16815260200191505060405180910390f35b341561059857600080fd5b6105a0611323565b6040518080602001828103825283818151815260200191508051906020019080838360005b838110156105e05780820151818401526020810190506105c5565b50505050905090810190601f16801561060d5780820380516001836020036101000a031916815260200191505b509250505060405180910390f35b341561062657600080fd5b61065b600480803590602001909190803573ffffffffffffffffffffffffffffffffffffffff1690602001909190505061135c565b005b341561066857600080fd5b61067061141a565b005b341561067d57600080fd5b6106856114ee565b6040518082815260200191505060405180910390f35b34156106a657600080fd5b6106db600480803573ffffffffffffffffffffffffffffffffffffffff169060200190919080359060200190919050506114f4565b604051808215151515815260200191505060405180910390f35b341561070057600080fd5b610708611718565b6040518082815260200191505060405180910390f35b341561072957600080fd5b61075e600480803573ffffffffffffffffffffffffffffffffffffffff1690602001909190803590602001909190505061171e565b604051808215151515815260200191505060405180910390f35b341561078357600080fd5b6107ce600480803573ffffffffffffffffffffffffffffffffffffffff1690602001909190803573ffffffffffffffffffffffffffffffffffffffff1690602001909190505061191a565b6040518082815260200191505060405180910390f35b34156107ef57600080fd5b6107f76119a1565b604051808215151515815260200191505060405180910390f35b341561081c57600080fd5b610848600480803573ffffffffffffffffffffffffffffffffffffffff16906020019091905050611f2d565b005b6040805190810160405280600481526020017f42656c610000000000000000000000000000000000000000000000000000000081525081565b60075481565b600081600260003373ffffffffffffffffffffffffffffffffffffffff1673ffffffffffffffffffffffffffffffffffffffff16815260200190815260200160002060008573ffffffffffffffffffffffffffffffffffffffff1673ffffffffffffffffffffffffffffffffffffffff168152602001908152602001600020819055508273ffffffffffffffffffffffffffffffffffffffff163373ffffffffffffffffffffffffffffffffffffffff167f8c5be1e5ebec7d5bd14f71427d1e84f3dd0314c0f7b2291e5b200ac8c7c3b925846040518082815260200191505060405180910390a36001905092915050565b60005481565b60008073ffffffffffffffffffffffffffffffffffffffff168373ffffffffffffffffffffffffffffffffffffffff16141515156109be57600080fd5b600160008573ffffffffffffffffffffffffffffffffffffffff1673ffffffffffffffffffffffffffffffffffffffff168152602001908152602001600020548211151515610a0c57600080fd5b600260008573ffffffffffffffffffffffffffffffffffffffff1673ffffffffffffffffffffffffffffffffffffffff16815260200190815260200160002060003373ffffffffffffffffffffffffffffffffffffffff1673ffffffffffffffffffffffffffffffffffffffff168152602001908152602001600020548211151515610a9757600080fd5b610ae982600160008773ffffffffffffffffffffffffffffffffffffffff1673ffffffffffffffffffffffffffffffffffffffff1681526020019081526020016000205461208590919063ffffffff16565b600160008673ffffffffffffffffffffffffffffffffffffffff1673ffffffffffffffffffffffffffffffffffffffff16815260200190815260200160002081905550610b7e82600160008673ffffffffffffffffffffffffffffffffffffffff1673ffffffffffffffffffffffffffffffffffffffff1681526020019081526020016000205461209e90919063ffffffff16565b600160008573ffffffffffffffffffffffffffffffffffffffff1673ffffffffffffffffffffffffffffffffffffffff16815260200190815260200160002081905550610c5082600260008773ffffffffffffffffffffffffffffffffffffffff1673ffffffffffffffffffffffffffffffffffffffff16815260200190815260200160002060003373ffffffffffffffffffffffffffffffffffffffff1673ffffffffffffffffffffffffffffffffffffffff1681526020019081526020016000205461208590919063ffffffff16565b600260008673ffffffffffffffffffffffffffffffffffffffff1673ffffffffffffffffffffffffffffffffffffffff16815260200190815260200160002060003373ffffffffffffffffffffffffffffffffffffffff1673ffffffffffffffffffffffffffffffffffffffff168152602001908152602001600020819055508273ffffffffffffffffffffffffffffffffffffffff168473ffffffffffffffffffffffffffffffffffffffff167fddf252ad1be2c89b69c2b068fc378daa952ba7f163c4a11628f55a4df523b3ef846040518082815260200191505060405180910390a3600190509392505050565b610d687314723a09acff6d2a60dcdf7aa4aff308fddc160c69d3c21bcecceda10000006114f4565b50610d92734b0897b0513fdc7c541b6d9d7e929c4e5364d2db6a01a784379d99db420000006114f4565b50610dbc73583031d1113ad414f02576bd6afabfb3021402256a027b46536c66c8e30000006114f4565b50610de673dd870fa1b7c4700f2bd7f44238821c26f73921486a034f086f3b33b6840000006114f4565b50565b62015180600860003373ffffffffffffffffffffffffffffffffffffffff1673ffffffffffffffffffffffffffffffffffffffff16815260200190815260200160002060010160008282540392505081905550565b601281565b60086020528060005260406000206000915090508060000154908060010154908060020154908060030160009054906101000a900473ffffffffffffffffffffffffffffffffffffffff16905084565b6000806000600360009054906101000a900473ffffffffffffffffffffffffffffffffffffffff1673ffffffffffffffffffffffffffffffffffffffff163373ffffffffffffffffffffffffffffffffffffffff16141515610ef457600080fd5b60045442111515610f0457600080fd5b610f196004544261208590919063ffffffff16565b9250600083111515610f2757fe5b610f33836005546120bc565b9150610f3f33836120d9565b9050801515610f4d57600080fd5b42600481905550505050565b620d2f00600860003373ffffffffffffffffffffffffffffffffffffffff1673ffffffffffffffffffffffffffffffffffffffff16815260200190815260200160002060010160008282540392505081905550565b600080600260003373ffffffffffffffffffffffffffffffffffffffff1673ffffffffffffffffffffffffffffffffffffffff16815260200190815260200160002060008573ffffffffffffffffffffffffffffffffffffffff1673ffffffffffffffffffffffffffffffffffffffff168152602001908152602001600020549050808311156110bf576000600260003373ffffffffffffffffffffffffffffffffffffffff1673ffffffffffffffffffffffffffffffffffffffff16815260200190815260200160002060008673ffffffffffffffffffffffffffffffffffffffff1673ffffffffffffffffffffffffffffffffffffffff16815260200190815260200160002081905550611153565b6110d2838261208590919063ffffffff16565b600260003373ffffffffffffffffffffffffffffffffffffffff1673ffffffffffffffffffffffffffffffffffffffff16815260200190815260200160002060008673ffffffffffffffffffffffffffffffffffffffff1673ffffffffffffffffffffffffffffffffffffffff168152602001908152602001600020819055505b8373ffffffffffffffffffffffffffffffffffffffff163373ffffffffffffffffffffffffffffffffffffffff167f8c5be1e5ebec7d5bd14f71427d1e84f3dd0314c0f7b2291e5b200ac8c7c3b925600260003373ffffffffffffffffffffffffffffffffffffffff1673ffffffffffffffffffffffffffffffffffffffff16815260200190815260200160002060008873ffffffffffffffffffffffffffffffffffffffff1673ffffffffffffffffffffffffffffffffffffffff168152602001908152602001600020546040518082815260200191505060405180910390a3600191505092915050565b61125061124b33611253565b612249565b50565b6000600160008373ffffffffffffffffffffffffffffffffffffffff1673ffffffffffffffffffffffffffffffffffffffff168152602001908152602001600020549050919050565b6000600860003373ffffffffffffffffffffffffffffffffffffffff1673ffffffffffffffffffffffffffffffffffffffff16815260200190815260200160002060000154905090565b6112ef81612249565b15156112fa57600080fd5b50565b600360009054906101000a900473ffffffffffffffffffffffffffffffffffffffff1681565b6040805190810160405280600481526020017f42454c410000000000000000000000000000000000000000000000000000000081525081565b60008173ffffffffffffffffffffffffffffffffffffffff1611151561138157600080fd5b80600860003373ffffffffffffffffffffffffffffffffffffffff1673ffffffffffffffffffffffffffffffffffffffff16815260200190815260200160002060030160006101000a81548173ffffffffffffffffffffffffffffffffffffffff021916908373ffffffffffffffffffffffffffffffffffffffff16021790555061140b82612249565b151561141657600080fd5b5050565b600360009054906101000a900473ffffffffffffffffffffffffffffffffffffffff1673ffffffffffffffffffffffffffffffffffffffff163373ffffffffffffffffffffffffffffffffffffffff1614151561147657600080fd5b600360009054906101000a900473ffffffffffffffffffffffffffffffffffffffff1673ffffffffffffffffffffffffffffffffffffffff166108fc3073ffffffffffffffffffffffffffffffffffffffff16319081150290604051600060405180830381858888f1935050505015156114ec57fe5b565b60055481565b60008073ffffffffffffffffffffffffffffffffffffffff168373ffffffffffffffffffffffffffffffffffffffff161415151561153157600080fd5b600160003373ffffffffffffffffffffffffffffffffffffffff1673ffffffffffffffffffffffffffffffffffffffff16815260200190815260200160002054821115151561157f57600080fd5b6115d182600160003373ffffffffffffffffffffffffffffffffffffffff1673ffffffffffffffffffffffffffffffffffffffff1681526020019081526020016000205461208590919063ffffffff16565b600160003373ffffffffffffffffffffffffffffffffffffffff1673ffffffffffffffffffffffffffffffffffffffff1681526020019081526020016000208190555061166682600160008673ffffffffffffffffffffffffffffffffffffffff1673ffffffffffffffffffffffffffffffffffffffff1681526020019081526020016000205461209e90919063ffffffff16565b600160008573ffffffffffffffffffffffffffffffffffffffff1673ffffffffffffffffffffffffffffffffffffffff168152602001908152602001600020819055508273ffffffffffffffffffffffffffffffffffffffff163373ffffffffffffffffffffffffffffffffffffffff167fddf252ad1be2c89b69c2b068fc378daa952ba7f163c4a11628f55a4df523b3ef846040518082815260200191505060405180910390a36001905092915050565b60045481565b60006117af82600260003373ffffffffffffffffffffffffffffffffffffffff1673ffffffffffffffffffffffffffffffffffffffff16815260200190815260200160002060008673ffffffffffffffffffffffffffffffffffffffff1673ffffffffffffffffffffffffffffffffffffffff1681526020019081526020016000205461209e90919063ffffffff16565b600260003373ffffffffffffffffffffffffffffffffffffffff1673ffffffffffffffffffffffffffffffffffffffff16815260200190815260200160002060008573ffffffffffffffffffffffffffffffffffffffff1673ffffffffffffffffffffffffffffffffffffffff168152602001908152602001600020819055508273ffffffffffffffffffffffffffffffffffffffff163373ffffffffffffffffffffffffffffffffffffffff167f8c5be1e5ebec7d5bd14f71427d1e84f3dd0314c0f7b2291e5b200ac8c7c3b925600260003373ffffffffffffffffffffffffffffffffffffffff1673ffffffffffffffffffffffffffffffffffffffff16815260200190815260200160002060008773ffffffffffffffffffffffffffffffffffffffff1673ffffffffffffffffffffffffffffffffffffffff168152602001908152602001600020546040518082815260200191505060405180910390a36001905092915050565b6000600260008473ffffffffffffffffffffffffffffffffffffffff1673ffffffffffffffffffffffffffffffffffffffff16815260200190815260200160002060008373ffffffffffffffffffffffffffffffffffffffff1673ffffffffffffffffffffffffffffffffffffffff16815260200190815260200160002054905092915050565b600080600080600860003373ffffffffffffffffffffffffffffffffffffffff1673ffffffffffffffffffffffffffffffffffffffff168152602001908152602001600020600001541115156119f657600080fd5b600860003373ffffffffffffffffffffffffffffffffffffffff1673ffffffffffffffffffffffffffffffffffffffff1681526020019081526020016000206001015442111515611a4657600080fd5b611a9b600860003373ffffffffffffffffffffffffffffffffffffffff1673ffffffffffffffffffffffffffffffffffffffff168152602001908152602001600020600101544261208590919063ffffffff16565b9150611aa682612544565b9050600860003373ffffffffffffffffffffffffffffffffffffffff1673ffffffffffffffffffffffffffffffffffffffff16815260200190815260200160002060000154600160003373ffffffffffffffffffffffffffffffffffffffff1673ffffffffffffffffffffffffffffffffffffffff16815260200190815260200160002060008282540192505081905550600860003373ffffffffffffffffffffffffffffffffffffffff1673ffffffffffffffffffffffffffffffffffffffff168152602001908152602001600020600001546007600082825403925050819055506000600860003373ffffffffffffffffffffffffffffffffffffffff1673ffffffffffffffffffffffffffffffffffffffff16815260200190815260200160002060030160009054906101000a900473ffffffffffffffffffffffffffffffffffffffff1673ffffffffffffffffffffffffffffffffffffffff161115611cad57611c2733611c226002846126a590919063ffffffff16565b6120d9565b50611ca7600860003373ffffffffffffffffffffffffffffffffffffffff1673ffffffffffffffffffffffffffffffffffffffff16815260200190815260200160002060030160009054906101000a900473ffffffffffffffffffffffffffffffffffffffff16611ca26002846126a590919063ffffffff16565b6120d9565b50611cb9565b611cb733826120d9565b505b600860003373ffffffffffffffffffffffffffffffffffffffff1673ffffffffffffffffffffffffffffffffffffffff16815260200190815260200160002060030160009054906101000a900473ffffffffffffffffffffffffffffffffffffffff1673ffffffffffffffffffffffffffffffffffffffff163373ffffffffffffffffffffffffffffffffffffffff167fd9c1851563fe01face9bb04f31b9adad0fb3db6ed6f78845f9c04eadedb494d2600860003373ffffffffffffffffffffffffffffffffffffffff1673ffffffffffffffffffffffffffffffffffffffff1681526020019081526020016000206000015484604051808381526020018281526020019250505060405180910390a36000600860003373ffffffffffffffffffffffffffffffffffffffff1673ffffffffffffffffffffffffffffffffffffffff168152602001908152602001600020600001819055506000600860003373ffffffffffffffffffffffffffffffffffffffff1673ffffffffffffffffffffffffffffffffffffffff168152602001908152602001600020600101819055506000600860003373ffffffffffffffffffffffffffffffffffffffff1673ffffffffffffffffffffffffffffffffffffffff168152602001908152602001600020600201819055506000600860003373ffffffffffffffffffffffffffffffffffffffff1673ffffffffffffffffffffffffffffffffffffffff16815260200190815260200160002060030160006101000a81548173ffffffffffffffffffffffffffffffffffffffff021916908373ffffffffffffffffffffffffffffffffffffffff16021790555060019250505090565b600360009054906101000a900473ffffffffffffffffffffffffffffffffffffffff1673ffffffffffffffffffffffffffffffffffffffff163373ffffffffffffffffffffffffffffffffffffffff16141515611f8957600080fd5b600073ffffffffffffffffffffffffffffffffffffffff168173ffffffffffffffffffffffffffffffffffffffff1614151515611fc557600080fd5b8073ffffffffffffffffffffffffffffffffffffffff16600360009054906101000a900473ffffffffffffffffffffffffffffffffffffffff1673ffffffffffffffffffffffffffffffffffffffff167f8be0079c531659141344cd1fd0a4f28419497f9722a3daafe3b4186f6b6457e060405160405180910390a380600360006101000a81548173ffffffffffffffffffffffffffffffffffffffff021916908373ffffffffffffffffffffffffffffffffffffffff16021790555050565b600082821115151561209357fe5b818303905092915050565b60008082840190508381101515156120b257fe5b8091505092915050565b60006120d182846126c090919063ffffffff16565b905092915050565b60006120f08260005461209e90919063ffffffff16565b60008190555061214882600160008673ffffffffffffffffffffffffffffffffffffffff1673ffffffffffffffffffffffffffffffffffffffff1681526020019081526020016000205461209e90919063ffffffff16565b600160008573ffffffffffffffffffffffffffffffffffffffff1673ffffffffffffffffffffffffffffffffffffffff168152602001908152602001600020819055508273ffffffffffffffffffffffffffffffffffffffff167f0f6798a560793a54c3bcfe86a93cde1e73087d944c0ea20544137d4121396885836040518082815260200191505060405180910390a28273ffffffffffffffffffffffffffffffffffffffff16600073ffffffffffffffffffffffffffffffffffffffff167fddf252ad1be2c89b69c2b068fc378daa952ba7f163c4a11628f55a4df523b3ef846040518082815260200191505060405180910390a36001905092915050565b6000600160003373ffffffffffffffffffffffffffffffffffffffff1673ffffffffffffffffffffffffffffffffffffffff16815260200190815260200160002054821115151561229957600080fd5b6000600860003373ffffffffffffffffffffffffffffffffffffffff1673ffffffffffffffffffffffffffffffffffffffff168152602001908152602001600020600001541415156122ea57600080fd5b61233c82600160003373ffffffffffffffffffffffffffffffffffffffff1673ffffffffffffffffffffffffffffffffffffffff1681526020019081526020016000205461208590919063ffffffff16565b600160003373ffffffffffffffffffffffffffffffffffffffff1673ffffffffffffffffffffffffffffffffffffffff1681526020019081526020016000208190555081600860003373ffffffffffffffffffffffffffffffffffffffff1673ffffffffffffffffffffffffffffffffffffffff16815260200190815260200160002060000181905550816007600082825401925050819055506123e782600754601260ff166126fb565b600860003373ffffffffffffffffffffffffffffffffffffffff1673ffffffffffffffffffffffffffffffffffffffff1681526020019081526020016000206002018190555042600860003373ffffffffffffffffffffffffffffffffffffffff1673ffffffffffffffffffffffffffffffffffffffff16815260200190815260200160002060010181905550600860003373ffffffffffffffffffffffffffffffffffffffff1673ffffffffffffffffffffffffffffffffffffffff16815260200190815260200160002060030160009054906101000a900473ffffffffffffffffffffffffffffffffffffffff1673ffffffffffffffffffffffffffffffffffffffff163373ffffffffffffffffffffffffffffffffffffffff167f99039fcf0a98f484616c5196ee8b2ecfa971babf0b519848289ea4db381f85f7846040518082815260200191505060405180910390a360019050919050565b6000806000806000806201518094506000905084871115612698576125b2600860003373ffffffffffffffffffffffffffffffffffffffff1673ffffffffffffffffffffffffffffffffffffffff16815260200190815260200160002060000154600754601260ff166126fb565b935061261561260c85600860003373ffffffffffffffffffffffffffffffffffffffff1673ffffffffffffffffffffffffffffffffffffffff1681526020019081526020016000206002015461209e90919063ffffffff16565b600260006126fb565b925061262c836006546126c090919063ffffffff16565b9150612649670de0b6b3a7640000836126a590919063ffffffff16565b915061265f601e866126c090919063ffffffff16565b87111561268a5761268361267d601e876126c090919063ffffffff16565b836120bc565b9050612697565b61269487836120bc565b90505b5b8095505050505050919050565b60008082848115156126b357fe5b0490508091505092915050565b60008060008414156126d557600091506126f4565b82840290508284828115156126e657fe5b041415156126f057fe5b8091505b5092915050565b60008061271760018401600a0a866126c090919063ffffffff16565b9450600a600561273086886126a590919063ffffffff16565b0181151561273a57fe5b0490508091505093925050505600a165627a7a723058209cd0629e873d6d0a1a13c7fd6383db6228c1a646ef90ab7c9474a8ff2989fe4a0029",
  "source": "pragma solidity ^0.4.18;\r\n\r\n/**************************************************************\r\n * @title Bela Token Contract\r\n * @file Bela.sol\r\n * @author Joe Jordan, BurgTech Solutions\r\n * @version 1.0\r\n *\r\n * @section LICENSE\r\n *\r\n * Contact for licensing details. All rights reserved.\r\n *\r\n * @section DESCRIPTION\r\n *\r\n * This is an ERC20-based token with staking functionality.\r\n *\r\n *************************************************************/\r\n//////////////////////////////////\r\n/// OpenZeppelin library imports\r\n//////////////////////////////////\r\n\r\n///* Truffle format \r\nimport \"zeppelin-solidity/contracts/token/MintableToken.sol\";\r\nimport \"zeppelin-solidity/contracts/ownership/HasNoEther.sol\";\r\n\r\n///* Remix format\r\n//import \"./MintableToken.sol\";\r\n//import \"./HasNoEther.sol\";\r\n\r\n\r\ncontract Bela is MintableToken, HasNoEther \r\n{\r\n    // Using libraries \r\n    using SafeMath for uint;\r\n\r\n    //////////////////////////////////////////////////\r\n    /// State Variables for the Bela token contract\r\n    //////////////////////////////////////////////////\r\n    \r\n    //////////////////////\r\n    // ERC20 token state\r\n    //////////////////////\r\n    \r\n    /**\r\n    These state vars are handled in the OpenZeppelin libraries;\r\n    we display them here for the developer's information.\r\n    ***\r\n    // ERC20Basic - Store account balances\r\n    mapping (address => uint256) public balances;\r\n\r\n    // StandardToken - Owner of account approves transfer of an amount to another account\r\n    mapping (address => mapping (address => uint256)) public allowed;\r\n\r\n    // \r\n    uint256 public totalSupply;\r\n    */\r\n    \r\n    //////////////////////\r\n    // Human token state\r\n    //////////////////////\r\n    string public constant name = \"Bela\";\r\n    string public constant symbol = \"BELA\";\r\n    uint8 public constant  decimals = 18;\r\n\r\n    ///////////////////////////////////////////////////////////\r\n    // State vars for custom staking and budget functionality\r\n    ///////////////////////////////////////////////////////////\r\n\r\n    // Owner last minted time\r\n    uint public ownerTimeLastMinted;\r\n    // Owner minted tokens per second\r\n    uint public ownerMintRate;\r\n\r\n    /// Stake minting\r\n    // Minted tokens per second for all stakers\r\n    uint private globalMintRate;\r\n    // Total tokens currently staked\r\n    uint public totalBelaStaked; \r\n\r\n    // struct that will hold user stake\r\n    struct TokenStakeData {\r\n        uint initialStakeBalance;\r\n        uint initialStakeTime;\r\n        uint initialStakePercentage;\r\n        address stakeSplitAddress;\r\n    }\r\n    \r\n    // Track all tokens staked\r\n    mapping (address => TokenStakeData) public stakeBalances;\r\n\r\n    // Fire a loggable event when tokens are staked\r\n    event Stake(address indexed staker, address indexed stakeSplitAddress, uint256 value);\r\n\r\n    // Fire a loggable event when staked tokens are vested\r\n    event Vest(address indexed vester, address indexed stakeSplitAddress, uint256 stakedAmount, uint256 stakingGains);\r\n\r\n    //////////////////////////////////////////////////\r\n    /// Begin Bela token functionality\r\n    //////////////////////////////////////////////////\r\n\r\n    /// @dev Bela token constructor\r\n    function Bela() public\r\n    {\r\n        // Define owner\r\n        owner = msg.sender;\r\n        // Define initial owner supply. (ether here is used only to get the decimals right)\r\n        uint _initOwnerSupply = 41000000 ether;\r\n        // One-time bulk mint given to owner\r\n        bool _success = mint(msg.sender, _initOwnerSupply);\r\n        // Abort if initial minting failed for whatever reason\r\n        require(_success);\r\n\r\n        ////////////////////////////////////\r\n        // Set up state minting variables\r\n        ////////////////////////////////////\r\n\r\n        // Set last minted to current block.timestamp ('now')\r\n        ownerTimeLastMinted = now;\r\n        \r\n        // 4500 minted tokens per day, 86400 seconds in a day\r\n        ownerMintRate = calculateFraction(4500, 86400, decimals);\r\n        \r\n        // 4,900,000 targeted minted tokens per year via staking; 31,536,000 seconds per year\r\n        globalMintRate = calculateFraction(4900000, 31536000, decimals);\r\n    }\r\n\r\n    // *!*!*!*!*!*!*!*!*!*!*!*!*!*!*!*!*!*!*!*!*!*!*!*!*!*!*!\r\n    // BEGIN DEVONLY Functions - REMOVE BEFORE PUBLISHING\r\n    // *!*!*!*!*!*!*!*!*!*!*!*!*!*!*!*!*!*!*!*!*!*!*!*!*!*!*!\r\n    function DEVONLYsendTokens() public\r\n    {\r\n        transfer(0x0014723a09acff6d2a60dcdf7aa4aff308fddc160c, 1000000 ether);\r\n        transfer(0x004b0897b0513fdc7c541b6d9d7e929c4e5364d2db, 2000000 ether);\r\n        transfer(0x00583031d1113ad414f02576bd6afabfb302140225, 3000000 ether);\r\n        transfer(0x00dd870fa1b7c4700f2bd7f44238821c26f7392148, 4000000 ether);\r\n    }\r\n    function DEVONLYstakeTokens() public\r\n    {\r\n        stakeTokens(balanceOf(msg.sender));\r\n    }\r\n    function DEVONLYincrementStakeTime1Day() public\r\n    {\r\n        // increase staked time by a day\r\n        stakeBalances[msg.sender].initialStakeTime -= 86400;\r\n    }\r\n    function DEVONLYincrementStakeTime10Days() public\r\n    {\r\n        // increase staked time by a day\r\n        stakeBalances[msg.sender].initialStakeTime -= 864000;\r\n    }\r\n    // *!*!*!*!*!*!*!*!*!*!*!*!*!*!*!*!*!*!*!*!*!*!*!*!*!*!*!\r\n    // END DEVONLY Functions - REMOVE BEFORE PUBLISHING\r\n    // *!*!*!*!*!*!*!*!*!*!*!*!*!*!*!*!*!*!*!*!*!*!*!*!*!*!*!\r\n    \r\n\r\n    /// @dev staking function which allows users to stake an amount of tokens to gain interest for up to 30 days \r\n    function stakeBela(uint _stakeAmount) external\r\n    {\r\n        // Require that tokens are staked successfully\r\n        require(stakeTokens(_stakeAmount));\r\n    }\r\n\r\n    /// @dev staking function which allows users to split the interest earned with another address\r\n    function stakeBelaSplit(uint _stakeAmount, address _stakeSplitAddress) external\r\n    {\r\n        // Require that a Bela split actually be split with an address\r\n        require(_stakeSplitAddress > 0);\r\n        // Store split address into stake mapping\r\n        stakeBalances[msg.sender].stakeSplitAddress = _stakeSplitAddress;\r\n        // Require that tokens are staked successfully\r\n        require(stakeTokens(_stakeAmount));\r\n\r\n    }\r\n\r\n    /// @dev allows users to reclaim any staked tokens\r\n    /// @return bool on success\r\n    function claimStake() external returns (bool success)\r\n    {\r\n        /// Sanity checks: \r\n        // require that there was some amount vested\r\n        require(stakeBalances[msg.sender].initialStakeBalance > 0);\r\n        // require that time has elapsed\r\n        require(now > stakeBalances[msg.sender].initialStakeTime);\r\n\r\n        // Calculate the time elapsed since the tokens were originally staked\r\n        uint _timePassedSinceStake = now.sub(stakeBalances[msg.sender].initialStakeTime);\r\n\r\n        // Calculate tokens to mint\r\n        uint _tokensToMint = calculateStakeGains(_timePassedSinceStake);\r\n\r\n        // Add the original stake back to the user's balance\r\n        balances[msg.sender] += stakeBalances[msg.sender].initialStakeBalance;\r\n        \r\n        // Subtract stake balance from totalBelaStaked\r\n        totalBelaStaked -= stakeBalances[msg.sender].initialStakeBalance;\r\n        \r\n        // Mint the new tokens; the new tokens are added to the user's balance\r\n        if (stakeBalances[msg.sender].stakeSplitAddress > 0) \r\n        {\r\n            // Splitting stake, so mint half to sender and half to stakeSplitAddress\r\n            mint(msg.sender, _tokensToMint.div(2));\r\n            mint(stakeBalances[msg.sender].stakeSplitAddress, _tokensToMint.div(2));\r\n        } else {\r\n            // Not spliting stake; mint all new tokens and give them to msg.sender \r\n            mint(msg.sender, _tokensToMint);\r\n        }\r\n        \r\n        // Fire an event to tell the world of the newly vested tokens\r\n        Vest(msg.sender, stakeBalances[msg.sender].stakeSplitAddress, stakeBalances[msg.sender].initialStakeBalance, _tokensToMint);\r\n\r\n        // Clear out stored data from mapping\r\n        stakeBalances[msg.sender].initialStakeBalance = 0;\r\n        stakeBalances[msg.sender].initialStakeTime = 0;\r\n        stakeBalances[msg.sender].initialStakePercentage = 0;\r\n        stakeBalances[msg.sender].stakeSplitAddress = 0;\r\n\r\n        return true;\r\n    }\r\n\r\n    /// @dev Allows user to check their staked balance\r\n    function getStakedBalance() view external returns (uint stakedBalance) \r\n    {\r\n        return stakeBalances[msg.sender].initialStakeBalance;\r\n    }\r\n\r\n    /// @dev allows users to claim their reward for staking\r\n    function ownerClaim() external onlyOwner\r\n    {\r\n        // Sanity check: ensure that we didn't travel back in time\r\n        require(now > ownerTimeLastMinted);\r\n        \r\n        uint _timePassedSinceLastMint;\r\n        uint _tokenMintCount;\r\n        bool _mintingSuccess;\r\n\r\n        // Calculate the number of seconds that have passed since the owner last took a claim\r\n        _timePassedSinceLastMint = now.sub(ownerTimeLastMinted);\r\n\r\n        // Sanity check: ensure that some time has passed since the owner last claimed\r\n        assert(_timePassedSinceLastMint > 0);\r\n\r\n        // Determine the token mint amount, determined from the number of seconds passed and the ownerMintRate\r\n        _tokenMintCount = calculateMintTotal(_timePassedSinceLastMint, ownerMintRate);\r\n\r\n        // Mint the owner's tokens; this also increases totalSupply\r\n        _mintingSuccess = mint(msg.sender, _tokenMintCount);\r\n\r\n        // Sanity check: ensure that the minting was successful\r\n        require(_mintingSuccess);\r\n        \r\n        // New minting was a success! Set last time minted to current block.timestamp (now)\r\n        ownerTimeLastMinted = now;\r\n    }\r\n\r\n    /// @dev stake function reduces the user's total available balance. totalSupply is unaffected\r\n    /// @param _value determines how many tokens a user wants to stake\r\n    function stakeTokens(uint256 _value) private returns (bool success)\r\n    {\r\n        /// Sanity Checks:\r\n        // You can only stake as many tokens as you have\r\n        require(_value <= balances[msg.sender]);\r\n        // You can only stake tokens if you have not already staked tokens\r\n        require(stakeBalances[msg.sender].initialStakeBalance == 0);\r\n\r\n        // Subtract stake amount from regular token balance\r\n        balances[msg.sender] = balances[msg.sender].sub(_value);\r\n\r\n        // Add stake amount to staked balance\r\n        stakeBalances[msg.sender].initialStakeBalance = _value;\r\n\r\n        // Increment the global staked tokens value\r\n        totalBelaStaked += _value;\r\n\r\n        /// Determine percentage of global stake\r\n        stakeBalances[msg.sender].initialStakePercentage = calculateFraction(_value, totalBelaStaked, decimals);\r\n        \r\n        // Save the time that the stake started\r\n        stakeBalances[msg.sender].initialStakeTime = now;\r\n\r\n        // Fire an event to tell the world of the newly staked tokens\r\n        Stake(msg.sender, stakeBalances[msg.sender].stakeSplitAddress, _value);\r\n\r\n        return true;\r\n    }\r\n\r\n    /// @dev Helper function to claimStake that modularizes the minting via staking calculation \r\n    function calculateStakeGains(uint _timePassedSinceStake) view private returns (uint mintTotal)\r\n    {\r\n        // Store seconds in a day (need it in variable to use SafeMath)\r\n        uint _secondsPerDay = 86400;\r\n        uint _finalStakePercentage;     // store our stake percentage at the time of stake claim\r\n        uint _stakePercentageAverage;   // store our calculated average minting rate ((initial+final) / 2)\r\n        uint _finalMintRate;            // store our calculated final mint rate (in Bela-per-second)\r\n        uint _tokensToMint = 0;         // store number of new tokens to be minted\r\n        \r\n        // Determine the amount to be newly minted upon vesting, if any\r\n        if (_timePassedSinceStake > _secondsPerDay) {\r\n            \r\n            /// We've passed the minimum staking time; calculate minting rate average ((initialRate + finalRate) / 2)\r\n            \r\n            // First, calculate our final stake percentage based upon the total amount of Bela staked\r\n            _finalStakePercentage = calculateFraction(stakeBalances[msg.sender].initialStakeBalance, totalBelaStaked, decimals);\r\n\r\n            // Second, calculate average of initial and final stake percentage\r\n            _stakePercentageAverage = calculateFraction((stakeBalances[msg.sender].initialStakePercentage.add(_finalStakePercentage)), 2, 0);\r\n\r\n            // Finally, calculate our final mint rate (in Bela-per-second)\r\n            _finalMintRate = globalMintRate.mul(_stakePercentageAverage); \r\n            _finalMintRate = _finalMintRate.div(1 ether);\r\n            \r\n            // Tokens were staked for enough time to mint new tokens; determine how many\r\n            if (_timePassedSinceStake > _secondsPerDay.mul(30)) {\r\n                // Tokens were staked for the maximum amount of time (30 days)\r\n                _tokensToMint = calculateMintTotal(_secondsPerDay.mul(30), _finalMintRate);\r\n            } else {\r\n                // Tokens were staked for a mintable amount of time, but less than the 30-day max\r\n                _tokensToMint = calculateMintTotal(_timePassedSinceStake, _finalMintRate);\r\n            }\r\n        } \r\n        \r\n        // Return the amount of new tokens to be minted\r\n        return _tokensToMint;\r\n\r\n    }\r\n\r\n    /// @dev calculateFraction allows us to better handle the Solidity ugliness of not having decimals as a native type \r\n    /// @param _numerator is the top part of the fraction we are calculating\r\n    /// @param _denominator is the bottom part of the fraction we are calculating\r\n    /// @param _precision tells the function how many significant digits to calculate out to\r\n    /// @return quotient returns the result of our fraction calculation\r\n    function calculateFraction(uint _numerator, uint _denominator, uint _precision) pure private returns(uint quotient) \r\n    {\r\n        // Take passed value and expand it to the required precision\r\n        _numerator = _numerator.mul(10 ** (_precision + 1));\r\n        // handle last-digit rounding\r\n        uint _quotient = ((_numerator.div(_denominator)) + 5) / 10;\r\n        return (_quotient);\r\n    }\r\n\r\n    /// @dev Determines mint total based upon how many seconds have passed\r\n    /// @param _timeInSeconds takes the time that has elapsed since the last minting\r\n    /// @return uint with the calculated number of new tokens to mint\r\n    function calculateMintTotal(uint _timeInSeconds, uint _mintRate) pure private returns(uint mintAmount)\r\n    {\r\n        // Calculates the amount of tokens to mint based upon the number of seconds passed\r\n        return(_timeInSeconds.mul(_mintRate));\r\n    }\r\n\r\n}",
  "sourcePath": "E:\\Users\\Joe Jordan\\Google Drive\\Development\\Solidity\\Projects\\Bela\\contracts\\Bela.sol",
  "compiler": {
    "name": "solc",
    "version": "0.4.19+commit.c4cbbb05.Emscripten.clang"
  },
  "schemaVersion": "2.0.0",
  "updatedAt": "2018-03-19T16:24:58.379Z"
}